:03000000020905ED
:0C090500787FE4F6D8FD75810C02080034
:10084E00456D6265646465642053797374656D7378
:10085E0000466F6C6C6F77206D652000466F7220BE
:10086E0070726F6A6563740053414442494E204A68
:05087E004553414E004E
:100800007F3812091B7F0C12091B7F8012091B7B8A
:10081000FF7A08794E1208837FC012091B7BFF7A8A
:1008200008795F1208837F0112091B7F8012091B60
:100830007BFF7A08796A1208837FC012091B7BFF4D
:0E0840007A0879761208837F0112091B80BCAA
:060883008B088A09890AB6
:10088900E4F50BF50CF50BF50CAB08AA09A90A85DB
:100899000C82850B831208B2FF600D120911050C39
:0808A900E50C70E5050B80E190
:0108B1002224
:0A0911008FA0D2B01208DFC2B1229D
:0A091B008FA0C2B01208DFC2B122A3
:0608DF00D2B17F0A7E0089
:1008E500E4FDFCC3ED9FEC9E5015E4FAFB0BBB0049
:0F08F500010ABA03F8BBE8F50DBD00010C80E461
:0109040022D0
:1008B200BB010CE58229F582E5833AF583E02250FB
:1008C20006E92582F8E622BBFE06E92582F8E22245
:0D08D200E58229F582E5833AF583E493225F
:00000001FF
